:020000040800F2
:1000000080040020010100083B110008CD0D00080C
:1000100039110008990100086B1200080000000067
:100020000000000000000000000000003F11000878
:10003000C5020008000000003D1100084111000841
:100040001B0100081B0100081B0100081B01000820
:100050001B0100081B0100081B0100081B01000810
:100060001B0100081B0100081B0100081B01000800
:100070001B0100081B0100081B0100081B010008F0
:100080001B0100081B0100081B0100081B010008E0
:100090001B0100081B0100081B0100081B010008D0
:1000A0001B0100081B0100081B0100081B010008C0
:1000B0001B0100081B010008000000001B010008D4
:1000C0001B01000800000000000000001B010008E8
:1000D000000000001B0100081B01000800000000D8
:1000E000C70200081B0100081B010008DFF80CD044
:1000F00000F040F800480047691400088004002020
:100100000648804706480047FEE7FEE7FEE7FEE7B1
:10011000FEE7FEE7FEE7FEE7FEE7FEE7A3110008C5
:10012000ED000008D2B201E000F8012B491EFBD21D
:1001300070470022F6E710B513460A4604461946F2
:10014000FFF7F0FF204610BD30B50B4601460020FA
:100150002022012409E021FA02F59D4205D303FA89
:1001600002F5491B04FA02F52844151EA2F101020A
:10017000F1DC30BD064C074D06E0E06840F00103BD
:1001800094E8070098471034AC42F6D3FFF7B2FF6B
:100190007816000898160008FEE700001FB520201A
:1001A000009001200190032003906946014800F06F
:1001B00003F91FBD001001402DE9F0410025154E47
:1001C0002C4601272021304600F0D6F90028F9D02E
:1001D000282001F02FF92021304600F0CDF9012828
:1001E0000BD0C4F1070007FA00F08543641CE4B2A9
:1001F000082CE7D32846BDE8F0812021304600F0E6
:10020000BBF90128F9D0C4F1070007FA00F0C0B229
:100210000543EBE7001001407FB50446FFF7BEFF42
:10022000274D00222021284600F0ABF9122000F0D3
:1002300063F801222021284600F0A3F91E2001F0D6
:10024000F9F820200090002001900290694628468D
:1002500000F0B2F82021284600F08EF970BB202172
:10026000284600F089F90028F9D02021284600F01E
:1002700083F90128F9D0FFF79FFF2070FFF79CFF5B
:100280006070FFF799FFA070FFF796FFE070FFF72F
:1002900093FF2071FFF782FF01222021284600F002
:1002A00070F920786178E2780844A1781144084414
:1002B0002179884202D1012004B070BD0020FBE703
:1002C00000100140704710B54FF4806000F068F8EE
:1002D0004FF4805000F064F84FF4005000F060F8E4
:1002E0004FF4804000F05CF8BDE810404FF400404F
:1002F00000F056B872B6FEE770B5044600F046F955
:100300000546601C02D004480078044400F03EF921
:10031000401BA042FAD370BD28000020F0B51F4951
:10032000B0F5806F0A6901D152420A61571C4FF43F
:1003300080554FF400564FF480434FF400440FD0E3
:10034000012A1DD1154AA842526824D0B04220D0BB
:10035000124A9842126819D0A04211D1521C16E0DC
:100360000E4AA842D2680ED0B0420AD00B4A984238
:10037000926803D0A04203D1521C00E0521E8A6052
:10038000F0BD521C00E0521ECA60F0BD521E0A6051
:10039000F0BD521C00E0521E4A60F0BD0800002073
:1003A000044910B50A68024202D00860FFF7B6FFA0
:1003B00010BD0000140401402DE9F84FDFF89C91B6
:1003C000002409F1040A0AF1040B23460F270BF15C
:1003D000040EBBE00125A5402A40AA4276D1DFF8F1
:1003E00080C14E68A6EB0C0866452BD00DDC032EB1
:1003F00034D005DC36B3012E19D0022E2FD11BE0EC
:10040000112E16D0122E2AD119E0B8F5881F19D056
:1004100006DCB8F5803F15D0B8F5801F1FD111E07C
:10042000B8F5001F0ED0B8F5041F18D10AE0CB684C
:1004300015E0CB681B1D12E0CB6808330FE0CB68DA
:100440000C330CE08B682BB1012B4FF0080303D069
:10045000456104E0042302E0056100E00023FF2A77
:1004600001D8064601E000F104064FEA840501D9EF
:10047000A5F12005D6F8008007FA05FC28EA0C084B
:1004800003FA05F548EA0508C6F800804D68ED0056
:100490005BD5344DAE6946F00106AE61AD6924F01E
:1004A000030605F0010500952F4D06EB050CDCF861
:1004B0000850A607360F07FA06F825EA0805DFF800
:1004C000AC80404503D14FF0000810E03DE0DFF87C
:1004D000A080404502D14FF0010808E0DFF8948089
:1004E000404502D14FF0020801E04FF0030808FA3E
:1004F00006F848EA0508CCF808804D68D9F800608D
:10050000ED034D4601D5164300E096432E604D683D
:10051000DAF80060AD03554601D5164300E0964376
:100520002E604D68DBF80060ED025D4601D5164394
:1005300000E096432E604D68DEF80060AD0275461F
:1005400001D5164300E096432E60641C0A6832FA17
:1005500004F57FF43FAFBDE8F88F000000040140D0
:10056000000011100010024000000140000801408E
:10057000000C0140001001408068084000D00120BC
:1005800070470AB1016170470904FBE701488068C0
:10059000704700002800002002488168027811445A
:1005A0008160704728000020074810B5016841F0BD
:1005B00010010160032000F075F80F2000F006F82C
:1005C00000F024F8002010BD0020024070B50D4D51
:1005D00004464FF47A712878B1FBF0F00A490968B3
:1005E000B1FBF0F000F0CCFA48B9102C07D2002291
:1005F0002146501E00F036F800206C6070BD0120CE
:1006000070BD000028000020340000200C4808B510
:10061000816941F001018161816901F0010100916D
:10062000C16941F08051C161C06900F08050009003
:100630000448416821F0E06141F08061416008BDFB
:100640000010024000000140002809DB00F01F02FA
:10065000012191404009800000F1E020C0F8001124
:1006600070470000F0B40E4B1B680C46C3F3022326
:10067000C3F10705042D00D90425191D072901D24E
:10068000002300E0DB1E012606FA05F1491E214089
:1006900099409E40761E16403143F0BC00F0FABDF2
:1006A0000CED00E0064900F0070208684FF6FF0372
:1006B000184040EA0220034A1043086070470000D7
:1006C0000CED00E00000FA052DE9F0470F460500AB
:1006D00061D0434E306800F00700B84209D230685C
:1006E00020F0070038433060306800F00700B8425F
:1006F00051D128683B4C810712D5400703D560686B
:1007000040F4E06060602878000703D5606840F43A
:10071000605060606068A96820F0F0000843606085
:100720002878C00728D06868012810D021680228DE
:1007300010D0890700292EDA616821F003010143F6
:100740006160FFF723FF804641F288390DE02168A0
:100750008903EFE78901EDE7FFF718FFA0EB080138
:10076000494502D90320BDE8F0876068696800F058
:100770000C00B0EB810FEFD1306800F00700B842F9
:100780000BD9306820F0070038433060306800F043
:100790000700B84201D00120E5E72878400705D5D9
:1007A0006068E96820F4E06008436060287800072A
:1007B00006D56068296920F4605040EAC100606095
:1007C00000F018F86168084AC1F30311515CC84091
:1007D0000649086006480068FFF7F8FE0020C2E7F7
:1007E000002002400010024068160008340000207B
:1007F0002C00002012A185B00FC98DE80F0014A0B5
:10080000144A006804905168134801F00C03042B4B
:1008100010D0082B0ED1C1F38343C9031DF8030088
:100820000AD5516804AAC1F34041515C0A4A5043B9
:10083000B0FBF1F005B0704708494843FAE7000003
:1008400002030405060708090A0B0C0D0E0F101011
:10085000010200000010024000127A0000093D0071
:100860002DE9F84F040070D02078C04DC00749D062
:100870006868C0F38100012807D06868C0F3810070
:10088000022809D16868C00306D52868800339D5D5
:1008900060680028E7D035E06068B0F5803F0BD095
:1008A00010B1B0F5A02F11D0286820F48030286056
:1008B000286820F4802002E0286840F48030286016
:1008C000606890B1FFF762FE06460AE0286840F4CF
:1008D00080202860F0E700BFFFF758FE801B6428E7
:1008E00073D828688003F7D50CE0FFF74FFE064663
:1008F00005E000BFFFF74AFE801B6428F0D8286897
:100900008003F7D420789A4E80074FF001094FF00A
:10091000000839D5686810F00C0F07D06868C0F37C
:100920008100022809D16868C00306D428688007BE
:1009300014D52069012808D110E02069B0B1C6F8AB
:100940000090FFF723FE074605E00AE1FFF71EFED1
:10095000C01B0228C4D828688007F7D528686169B9
:1009600020F0F80040EAC10028600DE0C6F80080E1
:10097000FFF70CFE074604E0FFF708FEC01B022845
:1009800023D828688007F7D4207800072CD5794829
:10099000A169D9B1C0F80090FFF7F8FD074604E05F
:1009A000FFF7F4FDC01B02280FD8686A8007F7D54F
:1009B00071484FF4FA510068B0FBF1F0009000BFAD
:1009C0000098411E0091FAD20EE080E0C0F800804D
:1009D000FFF7DCFD074604E0FFF7D8FDC01B022847
:1009E00075D8686A8007F7D42078400760D5E86931
:1009F0000027C00008D4E86940F08050E861E86949
:100A0000012700F0805000905C480168C90513D4AC
:100A10000168834641F480710160FFF7B7FD8246AB
:100A200006E000BFFFF7B2FDA0EB0A0064284ED835
:100A3000DBF80000C005F5D5E06801280AD008B150
:100A4000052813D0286A20F001002862286A20F0C7
:100A5000040002E0286A40F001002862E06841F2E8
:100A6000883B98B1FFF792FD82460BE0286A40F080
:100A700004002862EEE700BFFFF788FDA0EB0A0143
:100A800059455AD8286A8007F6D50CE0FFF77EFD55
:100A9000824605E0FFF77AFDA0EB0A0159454CD8E4
:100AA000286A8007F6D41FB1E86920F08050E86119
:100AB000E06988B36968C1F38101022944D0022842
:100AC000C6F8608004D0FFF761FD044638E034E0EA
:100AD000FFF75CFD074604E0FFF758FDC01B022846
:100AE0002BD828688001F7D4206AB0F5803F05D163
:100AF0006868A16820F4003008436860D4E9080100
:100B00000843696821F4741108436860C6F860906E
:100B1000FFF73CFD044606E025E000BFFFF736FD89
:100B2000001B022809D828688001F7D51BE000BF08
:100B3000FFF72CFD001B022802D90320BDE8F88F27
:100B400028688001F4D40EE00128F7D06868226A92
:100B500000F48031914204D1616A00F4701088423F
:100B600001D00120EAE70020E8E700000010024081
:100B700000004242800442423400002000700040E5
:100B800010B5401EB0F1807F01D3012010BD4FF0A1
:100B9000E02460610F21601700F07CFB0020A06161
:100BA00007202061002010BD70B590F83C20012A7C
:100BB00023D0012480F83C40022280F83D200368C5
:100BC0005A689D6822F070060A6832435A600C4BDE
:100BD00002689A4205D0B2F1804F02D0094B9A4286
:100BE00004D1496825F080031943916080F83D40A5
:100BF000002180F83C10084670BD022070BD000046
:100C0000002C01400004004010B5040003D094F80B
:100C10003D0010B107E0012010BD002084F83C0029
:100C2000204600F01FF8022084F83D00211D2068B6
:100C300000F0B8FA012084F8460084F83E0084F8F9
:100C40003F0084F8400084F8410084F8420084F8B2
:100C5000430084F8440084F8450084F83D000020F7
:100C600010BD000008B500680649884208D1064852
:100C7000816941F400618161806900F40060009045
:100C800008BD0000002C01400010024090F83D100B
:100C9000012901D001207047022180F83D10006831
:100CA0000949884205D0B0F1804F02D007498842F7
:100CB00004D1816801F00701062903D0016841F0E1
:100CC0000101016000207047002C01400004004039
:100CD00001680A6A41F211131A4207D10A6A9B108D
:100CE0001A4203D10A6822F001020A60012180F849
:100CF0003D100020704770B5044690F83C00012874
:100D000017D0012584F83C50022084F83D0020686B
:100D1000826822F0770222F47F42826008685028BD
:100D200030D00DDC20284DD005DC98B310283BD105
:100D300048E0022070BD302844D0402834D139E04A
:100D4000602828D0702806D0B0F5805F2CD0B0F590
:100D5000005F29D10AE0CB68D1E90121206800F0C9
:100D60004FFA2068816841F0770109E0CB68D1E94A
:100D70000121206800F044FA2068816841F4804134
:100D8000816011E0CA684968206800F04BFA502180
:100D9000206807E016E0CA684968206800F053FA46
:100DA0006021206800F036FA84F83D50002084F875
:100DB0003C0070BDCA684968206800F033FA4021E1
:100DC0002068EFE7226801461046EBE7FEE710B522
:100DD000012000F005F8BDE810400520FFF78CBAAF
:100DE00070B50B4D0446002208212846FFF7C9FBC9
:100DF000002210212846FFF7C4FB05480C3001688B
:100E000064F31F210160BDE8704000F06FB800007E
:100E1000000C014008B509A202291268009200D313
:100E20000021074AD07011711DF801100844C0B2AA
:100E300040F08000FFF7D4FF08BD000000401454CC
:100E40000000002070B50B4D044601220821284601
:100E5000FFF797FB002210212846FFF792FB054879
:100E60000C30016864F31F210160BDE8704000F0A0
:100E70003DB80000000C01402DE9F0414FF0E024A6
:100E8000064660694FF47A71401CB0FBF1F5A06929
:100E9000B0FBF5F0C0F57A77FFF778FB00EB400187
:100EA000C1EBC01007EBC0074FEA0408D8F81800E0
:100EB000B0FBF5F0C0F57A74FFF768FB00EB40017A
:100EC000C1EBC01004EBC000C01BB042EED3BDE8C4
:100ED000F08100000449087840F00400087040F0F8
:100EE0000800FFF77DBF00000000002010B5094C8E
:100EF000012220212046FFF744FB3220FFF7BCFFF0
:100F0000002220212046FFF73CFBBDE810403220A4
:100F1000FFF7B2BF000C014010B50C4C0020E07090
:100F20002071182060703820FFF75AFF04202070CD
:100F3000FFF7D0FF0220A0700620FFF751FFFFF758
:100F400046FFBDE810400520FFF7D6B9000000209D
:100F500070B51546FFF75EFF134C15E0E0781028DA
:100F600007D30020E0702179491CC9B22171FFF735
:100F700051FF28780A280BD00D280FD0FFF762FF09
:100F8000E078401CE0706D1C28780028E6D170BD28
:100F90002079401CC1B22171E07801E02179002064
:100FA000FFF738FFEFE70000000000202DE9F047D1
:100FB00086B0002640480096019602960396816905
:100FC00041F010018161816901F010010491816992
:100FD00041F008018161816901F008010491816992
:100FE00041F004018161816901F00401049181698A
:100FF00041F0200181618069DFF8C08000F02000AD
:101000004FF639740490002221464046FFF7B9FAA2
:10101000DFF8AC904FF40067002239464846FFF7EE
:10102000B0FADFF8A0A000224FF478715046FFF725
:10103000A8FA009401240225694640460194CDE9AE
:101040000245FFF7B9F94FF4704000901E48CDE912
:10105000010469464846FFF7AFF9A00200901B481B
:10106000CDE9010469464846FFF7A6F9CDE90074C9
:1010700069464846CDE90245FFF79EF94FF4707086
:1010800003958DE8510069465046FFF795F92020F9
:10109000CDE9000469465046CDE90245FFF78CF9D9
:1010A000002211462820FFF7DDFA2820FFF7CCFAAE
:1010B00006B0BDE8F087000000100240000C0140BF
:1010C0000008014000100140000021100000111034
:1010D00010B586B00024174800940194029403943C
:1010E00004941349059401604721C0E901144FF6A7
:1010F000FF71C0E9031444618461FFF785FD08B105
:10110000FFF7F8F84FF48050009069460948FFF760
:10111000F2FD08B1FFF7EEF8049404A90548059420
:10112000FFF742FD002801D0FFF7E4F806B010BD3C
:10113000002C014038000020FEE7FEE770477047B2
:10114000FFF72ABA30B58FB028216846FEF7F1FFC5
:1011500014210AA8FEF7EDFF01210804CDE90010D3
:101160000024029402250491CDE907504FF4E010C9
:1011700009906846FFF774FB08B172B6FEE70F20CE
:10118000CDE90A054FF48060CDE90C4002210AA8A0
:101190000E94FFF799FA002801D072B6FEE70FB05F
:1011A00030BD704770B50268134B144C4FF0804649
:1011B000984203D0B04201D0A04203D122F0700582
:1011C0004A682A43984203D0B04201D0A04203D1DA
:1011D00022F44074CA6822434C6922F08002224300
:1011E00002608A68C2620A688262984201D1096913
:1011F00001630121416170BD002C014000040040E9
:1012000010B5846842EA032224F47F440A4322434F
:10121000826010BD826822F070020A4342F007012A
:101220008160704710B5036A046A24F00104046207
:10123000846924F0F00444EA021423F00A020A4309
:101240008461026210BD10B5036A23F010030362CB
:101250008369046A23F4704343EA023224F0A00352
:1012600043EA01118261016210BDFEE70FB4084B31
:1012700010B504A902AA039800F02CF8044602A9AC
:10128000002000F0D1F8204610BC5DF814FB0000EF
:10129000291400080907090E002804DB00F1E020EA
:1012A00080F80014704700F00F0000F1E02080F893
:1012B000141D704702E008C8121F08C1002AFAD1A5
:1012C00070477047002001E001C1121F002AFBD1C6
:1012D000704700002DE9FF4F89B09B46044600256A
:1012E00006E025280BD05A460B999047641C6D1CCC
:1012F00020780028F5D10DB02846BDE8F08F0027F2
:10130000B8460122474900E0074314F8013F203B5B
:1013100002FA03F00842F7D120782E2819D114F8E8
:10132000010F47F004072A280ED06FF02F02207813
:10133000A0F1300109290CD808EB880102EB41012A
:1013400000EB0108641CF2E70A98641C50F8048B57
:101350000A9020780028CED0642808D0692806D0CA
:1013600075281ED05A460B9990476D1C58E00A9973
:101370004FF00A0901C90A91002802DA40422D21E2
:1013800002E0390504D52B218DF82010012103E05E
:10139000F90704D02021F7E78A4608AE0DE00021C6
:1013A000FAE70A994FF00A0901C90A91F7E7494695
:1013B000FEF7CAFE303106F8011D0028F7D1ADEB6B
:1013C000060000F12009780701D44FF00108C84554
:1013D00002DDA8EB090000E000208046002706E0BF
:1013E00008A85A46C05D0B9990476D1C7F1C574555
:1013F000F6DB04E030205A460B9990476D1CB8F19B
:101400000001A8F10108F5DC05E016F8010B5A46C9
:101410000B9990476D1CB9F10001A9F10109F4DCA9
:10142000641C65E7092801000A68531C0B601070F2
:101430007047000070B54FF6FA710A4D081A84B271
:10144000286844622846FFF721FC4FF6F9712868A6
:1014500001E0426A94B28C42FBD3BDE8704001487F
:10146000FFF736BC380000201CB5FFF79DF8FFF7EA
:1014700069FEFFF79BFDFFF72BFEFFF74DFD5F4871
:10148000FEF7CAFE5D4DA5F1180448B1FFF79FFCB9
:101490002B78AA785AA16069FFF7E8FE626902E03A
:1014A000FFF795FC5AA200210846FFF751FDDFF82F
:1014B0006C81DFF86C915B4E4FF480674FF4007ADB
:1014C0004FF4807B39464046FFF756F8012802D199
:1014D0002069404220614948FEF79EFE00287DD0E9
:1014E000FFF775FC2069411C02D0012808D011E0EB
:1014F000D4E90201CDE900012B78AA784AA106E0DF
:10150000D4E90001CDE900012B78AA784EA16069E9
:10151000FFF7ACFE002108466269FFF719FDA878C5
:10152000A168884209DCE168884206DB28786168A6
:10153000884202DB216888423DDD002201214846C5
:10154000FFF71FF8A878A168884207DD00225146FE
:101550003046FFF716F8012259460BE0E168884251
:1015600001DA002200E0012259463046FFF709F86F
:10157000012251463046FFF704F828782168884256
:1015800007DD002280213046FEF7FBFF01224021CB
:101590000CE0A8786168884201DA002200E00122AC
:1015A00040213046FEF7EDFF012280214FEA060080
:1015B000FEF7E7FF86E7012240213046FEF7E1FF14
:1015C000012280213046FEF7DCFF012259463046D9
:1015D000FEF7D7FF01225146304600E005E0FEF756
:1015E000D0FF012211464846E2E7FFF7F0FB002159
:1015F00007A20846FFF7ACFC64E7000020000020CB
:1016000054656D703A2564205765743A256400006E
:101610004572726F72212121000000000008014014
:10162000000C01400010014054656D703A256420A3
:101630005765743A25640D0A2054202B3A25642DF1
:101640003A2564200000000054656D703A2564203E
:101650005765743A25640D0A2057202B3A25642DCE
:101660003A25642000000000000000000000000097
:10167000010203040607080998160008000000206C
:1016800038000000B4120008D0160008380000200E
:1016900048040000C4120008000000000000000020
:1016A000460000000A000000460000000A0000009A
:1016B000FFFFFFFF0000000000000000000000002E
:1016C0000100000010000000000000000024F400F1
:04000005080000ED02
:00000001FF
